{
  "contractName": "Crowdsale",
  "abi": [
    {
      "constant": true,
      "inputs": [],
      "name": "tokenRate",
      "outputs": [
        {
          "name": "",
          "type": "uint256"
        }
      ],
      "payable": false,
      "stateMutability": "view",
      "type": "function"
    },
    {
      "constant": true,
      "inputs": [],
      "name": "endTime",
      "outputs": [
        {
          "name": "",
          "type": "uint256"
        }
      ],
      "payable": false,
      "stateMutability": "view",
      "type": "function"
    },
    {
      "constant": true,
      "inputs": [],
      "name": "numTokensSold",
      "outputs": [
        {
          "name": "",
          "type": "uint256"
        }
      ],
      "payable": false,
      "stateMutability": "view",
      "type": "function"
    },
    {
      "constant": true,
      "inputs": [],
      "name": "startTime",
      "outputs": [
        {
          "name": "",
          "type": "uint256"
        }
      ],
      "payable": false,
      "stateMutability": "view",
      "type": "function"
    },
    {
      "constant": true,
      "inputs": [],
      "name": "owner",
      "outputs": [
        {
          "name": "",
          "type": "address"
        }
      ],
      "payable": false,
      "stateMutability": "view",
      "type": "function"
    },
    {
      "constant": true,
      "inputs": [],
      "name": "myToken",
      "outputs": [
        {
          "name": "",
          "type": "address"
        }
      ],
      "payable": false,
      "stateMutability": "view",
      "type": "function"
    },
    {
      "inputs": [
        {
          "name": "wallet",
          "type": "address"
        },
        {
          "name": "_tokenRate",
          "type": "uint256"
        }
      ],
      "payable": false,
      "stateMutability": "nonpayable",
      "type": "constructor"
    },
    {
      "constant": true,
      "inputs": [],
      "name": "isICOOpen",
      "outputs": [
        {
          "name": "",
          "type": "bool"
        }
      ],
      "payable": false,
      "stateMutability": "view",
      "type": "function"
    },
    {
      "constant": true,
      "inputs": [],
      "name": "isICOOver",
      "outputs": [
        {
          "name": "",
          "type": "bool"
        }
      ],
      "payable": false,
      "stateMutability": "view",
      "type": "function"
    },
    {
      "constant": false,
      "inputs": [],
      "name": "buyTokens",
      "outputs": [
        {
          "name": "",
          "type": "bool"
        }
      ],
      "payable": true,
      "stateMutability": "payable",
      "type": "function"
    },
    {
      "constant": false,
      "inputs": [],
      "name": "refund",
      "outputs": [
        {
          "name": "",
          "type": "bool"
        }
      ],
      "payable": false,
      "stateMutability": "nonpayable",
      "type": "function"
    },
    {
      "constant": false,
      "inputs": [],
      "name": "withdrawEthers",
      "outputs": [],
      "payable": false,
      "stateMutability": "nonpayable",
      "type": "function"
    }
  ],
  "bytecode": "0x608060405234801561001057600080fd5b50604051604080611e808339810180604052604081101561003057600080fd5b810190808051906020019092919080519060200190929190505050336000806101000a81548173ffffffffffffffffffffffffffffffffffffffff021916908373ffffffffffffffffffffffffffffffffffffffff1602179055506000612710905060606040518060400160405280600981526020017f4d595448544f4b454e0000000000000000000000000000000000000000000000815250905060606040518060400160405280600481526020017f4d5954480000000000000000000000000000000000000000000000000000000081525090506000601290508282828660405161011c906102cd565b8080602001806020018560ff1660ff168152602001848152602001838103835287818151815260200191508051906020019080838360005b8381101561016f578082015181840152602081019050610154565b50505050905090810190601f16801561019c5780820380516001836020036101000a031916815260200191505b50838103825286818151815260200191508051906020019080838360005b838110156101d55780820151818401526020810190506101ba565b50505050905090810190601f1680156102025780820380516001836020036101000a031916815260200191505b509650505050505050604051809103906000f080158015610227573d6000803e3d6000fd5b50600260006101000a81548173ffffffffffffffffffffffffffffffffffffffff021916908373ffffffffffffffffffffffffffffffffffffffff1602179055504260048190555061096042016005819055508460068190555085600160006101000a81548173ffffffffffffffffffffffffffffffffffffffff021916908373ffffffffffffffffffffffffffffffffffffffff1602179055505050505050506102da565b61108c80610df483390190565b610b0b806102e96000396000f3fe60806040526004361061009c5760003560e01c806378e979251161006457806378e97925146101685780638da5cb5b14610193578063925ac216146101ea578063b8fcf93714610219578063bdc8e55114610270578063d0febe4c1461029f5761009c565b806331711884146100a15780633197cbb6146100cc57806337e0e290146100f7578063590e1ae314610122578063687e6f4414610151575b600080fd5b3480156100ad57600080fd5b506100b66102c1565b6040518082815260200191505060405180910390f35b3480156100d857600080fd5b506100e16102c7565b6040518082815260200191505060405180910390f35b34801561010357600080fd5b5061010c6102cd565b6040518082815260200191505060405180910390f35b34801561012e57600080fd5b506101376102d3565b604051808215151515815260200191505060405180910390f35b34801561015d57600080fd5b506101666106a5565b005b34801561017457600080fd5b5061017d610846565b6040518082815260200191505060405180910390f35b34801561019f57600080fd5b506101a861084c565b604051808273ffffffffffffffffffffffffffffffffffffffff1673ffffffffffffffffffffffffffffffffffffffff16815260200191505060405180910390f35b3480156101f657600080fd5b506101ff610871565b604051808215151515815260200191505060405180910390f35b34801561022557600080fd5b5061022e61088c565b604051808273ffffffffffffffffffffffffffffffffffffffff1673ffffffffffffffffffffffffffffffffffffffff16815260200191505060405180910390f35b34801561027c57600080fd5b506102856108b2565b604051808215151515815260200191505060405180910390f35b6102a76108be565b604051808215151515815260200191505060405180910390f35b60065481565b60055481565b60035481565b60006102dd610871565b61034f576040517f08c379a000000000000000000000000000000000000000000000000000000000815260040180806020018281038252600f8152602001807f49434f206973206e6f74206f70656e000000000000000000000000000000000081525060200191505060405180910390fd5b6000600260009054906101000a900473ffffffffffffffffffffffffffffffffffffffff1673ffffffffffffffffffffffffffffffffffffffff166370a08231336040518263ffffffff1660e01b8152600401808273ffffffffffffffffffffffffffffffffffffffff1673ffffffffffffffffffffffffffffffffffffffff16815260200191505060206040518083038186803b1580156103f057600080fd5b505afa158015610404573d6000803e3d6000fd5b505050506040513d602081101561041a57600080fd5b81019080805190602001909291905050501161049e576040517f08c379a00000000000000000000000000000000000000000000000000000000081526004018080602001828103825260128152602001807f5a65726f20546f6b656e2062616c616e6365000000000000000000000000000081525060200191505060405180910390fd5b6000600260009054906101000a900473ffffffffffffffffffffffffffffffffffffffff1673ffffffffffffffffffffffffffffffffffffffff166370a08231336040518263ffffffff1660e01b8152600401808273ffffffffffffffffffffffffffffffffffffffff1673ffffffffffffffffffffffffffffffffffffffff16815260200191505060206040518083038186803b15801561053f57600080fd5b505afa158015610553573d6000803e3d6000fd5b505050506040513d602081101561056957600080fd5b810190808051906020019092919050505090506000600654828161058957fe5b0490503373ffffffffffffffffffffffffffffffffffffffff166108fc829081150290604051600060405180830381858888f193505050501580156105d2573d6000803e3d6000fd5b50600260009054906101000a900473ffffffffffffffffffffffffffffffffffffffff1673ffffffffffffffffffffffffffffffffffffffff1663a842375e336040518263ffffffff1660e01b8152600401808273ffffffffffffffffffffffffffffffffffffffff1673ffffffffffffffffffffffffffffffffffffffff168152602001915050600060405180830381600087803b15801561067457600080fd5b505af1158015610688573d6000803e3d6000fd5b505050508160036000828254039250508190555060019250505090565b6000809054906101000a900473ffffffffffffffffffffffffffffffffffffffff1673ffffffffffffffffffffffffffffffffffffffff163373ffffffffffffffffffffffffffffffffffffffff161461074a576040517f08c379a0000000000000000000000000000000000000000000000000000000008152600401808060200182810382526022815260200180610abe6022913960400191505060405180910390fd5b6107526108b2565b6107c4576040517f08c379a00000000000000000000000000000000000000000000000000000000081526004018080602001828103825260148152602001807f49434f206e6f742066696e69736865642079657400000000000000000000000081525060200191505060405180910390fd5b600160009054906101000a900473ffffffffffffffffffffffffffffffffffffffff1673ffffffffffffffffffffffffffffffffffffffff166108fc3073ffffffffffffffffffffffffffffffffffffffff16319081150290604051600060405180830381858888f19350505050158015610843573d6000803e3d6000fd5b50565b60045481565b6000809054906101000a900473ffffffffffffffffffffffffffffffffffffffff1681565b6000600454421015801561088757506005544211155b905090565b600260009054906101000a900473ffffffffffffffffffffffffffffffffffffffff1681565b60006005544211905090565b60006108c8610871565b61093a576040517f08c379a000000000000000000000000000000000000000000000000000000000815260040180806020018281038252600f8152602001807f49434f206973206e6f74206f70656e000000000000000000000000000000000081525060200191505060405180910390fd5b60013410156109b1576040517f08c379a000000000000000000000000000000000000000000000000000000000815260040180806020018281038252601e8152602001807f416d6f756e742073686f756c642062652061746c65617374203120776569000081525060200191505060405180910390fd5b6000349050600060065482029050600260009054906101000a900473ffffffffffffffffffffffffffffffffffffffff1673ffffffffffffffffffffffffffffffffffffffff1663a9059cbb33836040518363ffffffff1660e01b8152600401808373ffffffffffffffffffffffffffffffffffffffff1673ffffffffffffffffffffffffffffffffffffffff16815260200182815260200192505050602060405180830381600087803b158015610a6857600080fd5b505af1158015610a7c573d6000803e3d6000fd5b505050506040513d6020811015610a9257600080fd5b810190808051906020019092919050505050806003600082825401925050819055506001925050509056fe4f6e6c79206f776e65722063616e2063616c6c20746869732066756e6374696f6e2ea165627a7a72305820f3120906ce7e9252e6a11e75c42351fbf42101f2282c5fe8afc53116d3d252f3002960806040523480156200001157600080fd5b506040516200108c3803806200108c833981018060405260808110156200003757600080fd5b8101908080516401000000008111156200005057600080fd5b828101905060208101848111156200006757600080fd5b81518560018202830111640100000000821117156200008557600080fd5b50509291906020018051640100000000811115620000a257600080fd5b82810190506020810184811115620000b957600080fd5b8151856001820283011164010000000082111715620000d757600080fd5b5050929190602001805190602001909291908051906020019092919050505083600190805190602001906200010e929190620001b1565b50826002908051906020019062000127929190620001b1565b5081600360006101000a81548160ff021916908360ff160217905550600360009054906101000a900460ff1660ff16600a0a8102600081905550600054600460003373ffffffffffffffffffffffffffffffffffffffff1673ffffffffffffffffffffffffffffffffffffffff168152602001908152602001600020819055505050505062000260565b828054600181600116156101000203166002900490600052602060002090601f016020900481019282601f10620001f457805160ff191683800117855562000225565b8280016001018555821562000225579182015b828111156200022457825182559160200191906001019062000207565b5b50905062000234919062000238565b5090565b6200025d91905b80821115620002595760008160009055506001016200023f565b5090565b90565b610e1c80620002706000396000f3fe608060405234801561001057600080fd5b50600436106100b45760003560e01c806370a082311161007157806370a08231146102e257806395d89b411461033a578063a842375e146103bd578063a9059cbb14610401578063d1df306c14610467578063dd62ed3e146104cd576100b4565b806306fdde03146100b9578063095ea7b31461013c57806318160ddd146101a257806323b872dd146101c0578063313ce567146102465780635c6581651461026a575b600080fd5b6100c1610545565b6040518080602001828103825283818151815260200191508051906020019080838360005b838110156101015780820151818401526020810190506100e6565b50505050905090810190601f16801561012e5780820380516001836020036101000a031916815260200191505b509250505060405180910390f35b6101886004803603604081101561015257600080fd5b81019080803573ffffffffffffffffffffffffffffffffffffffff169060200190929190803590602001909291905050506105e3565b604051808215151515815260200191505060405180910390f35b6101aa6106d5565b6040518082815260200191505060405180910390f35b61022c600480360360608110156101d657600080fd5b81019080803573ffffffffffffffffffffffffffffffffffffffff169060200190929190803573ffffffffffffffffffffffffffffffffffffffff169060200190929190803590602001909291905050506106db565b604051808215151515815260200191505060405180910390f35b61024e6108bb565b604051808260ff1660ff16815260200191505060405180910390f35b6102cc6004803603604081101561028057600080fd5b81019080803573ffffffffffffffffffffffffffffffffffffffff169060200190929190803573ffffffffffffffffffffffffffffffffffffffff1690602001909291905050506108ce565b6040518082815260200191505060405180910390f35b610324600480360360208110156102f857600080fd5b81019080803573ffffffffffffffffffffffffffffffffffffffff1690602001909291905050506108f3565b6040518082815260200191505060405180910390f35b61034261093c565b6040518080602001828103825283818151815260200191508051906020019080838360005b83811015610382578082015181840152602081019050610367565b50505050905090810190601f1680156103af5780820380516001836020036101000a031916815260200191505b509250505060405180910390f35b6103ff600480360360208110156103d357600080fd5b81019080803573ffffffffffffffffffffffffffffffffffffffff1690602001909291905050506109da565b005b61044d6004803603604081101561041757600080fd5b81019080803573ffffffffffffffffffffffffffffffffffffffff16906020019092919080359060200190929190505050610a6c565b604051808215151515815260200191505060405180910390f35b6104b36004803603604081101561047d57600080fd5b81019080803573ffffffffffffffffffffffffffffffffffffffff16906020019092919080359060200190929190505050610c33565b604051808215151515815260200191505060405180910390f35b61052f600480360360408110156104e357600080fd5b81019080803573ffffffffffffffffffffffffffffffffffffffff169060200190929190803573ffffffffffffffffffffffffffffffffffffffff169060200190929190505050610d69565b6040518082815260200191505060405180910390f35b60018054600181600116156101000203166002900480601f0160208091040260200160405190810160405280929190818152602001828054600181600116156101000203166002900480156105db5780601f106105b0576101008083540402835291602001916105db565b820191906000526020600020905b8154815290600101906020018083116105be57829003601f168201915b505050505081565b600081600560003373ffffffffffffffffffffffffffffffffffffffff1673ffffffffffffffffffffffffffffffffffffffff16815260200190815260200160002060008573ffffffffffffffffffffffffffffffffffffffff1673ffffffffffffffffffffffffffffffffffffffff168152602001908152602001600020819055508273ffffffffffffffffffffffffffffffffffffffff163373ffffffffffffffffffffffffffffffffffffffff167f8c5be1e5ebec7d5bd14f71427d1e84f3dd0314c0f7b2291e5b200ac8c7c3b925846040518082815260200191505060405180910390a36001905092915050565b60005481565b600081600460008673ffffffffffffffffffffffffffffffffffffffff1673ffffffffffffffffffffffffffffffffffffffff16815260200190815260200160002054101580156107a8575081600560008673ffffffffffffffffffffffffffffffffffffffff1673ffffffffffffffffffffffffffffffffffffffff16815260200190815260200160002060003373ffffffffffffffffffffffffffffffffffffffff1673ffffffffffffffffffffffffffffffffffffffff1681526020019081526020016000205410155b6107b157600080fd5b81600460008573ffffffffffffffffffffffffffffffffffffffff1673ffffffffffffffffffffffffffffffffffffffff1681526020019081526020016000206000828254019250508190555081600460008673ffffffffffffffffffffffffffffffffffffffff1673ffffffffffffffffffffffffffffffffffffffff168152602001908152602001600020600082825403925050819055508273ffffffffffffffffffffffffffffffffffffffff168473ffffffffffffffffffffffffffffffffffffffff167fddf252ad1be2c89b69c2b068fc378daa952ba7f163c4a11628f55a4df523b3ef846040518082815260200191505060405180910390a3600190509392505050565b600360009054906101000a900460ff1681565b6005602052816000526040600020602052806000526040600020600091509150505481565b6000600460008373ffffffffffffffffffffffffffffffffffffffff1673ffffffffffffffffffffffffffffffffffffffff168152602001908152602001600020549050919050565b60028054600181600116156101000203166002900480601f0160208091040260200160405190810160405280929190818152602001828054600181600116156101000203166002900480156109d25780601f106109a7576101008083540402835291602001916109d2565b820191906000526020600020905b8154815290600101906020018083116109b557829003601f168201915b505050505081565b600460008273ffffffffffffffffffffffffffffffffffffffff1673ffffffffffffffffffffffffffffffffffffffff16815260200190815260200160002054600054036000819055506000600460008373ffffffffffffffffffffffffffffffffffffffff1673ffffffffffffffffffffffffffffffffffffffff1681526020019081526020016000208190555050565b600081600460003373ffffffffffffffffffffffffffffffffffffffff1673ffffffffffffffffffffffffffffffffffffffff168152602001908152602001600020541015610aba57600080fd5b81600460003373ffffffffffffffffffffffffffffffffffffffff1673ffffffffffffffffffffffffffffffffffffffff1681526020019081526020016000205403600460003373ffffffffffffffffffffffffffffffffffffffff1673ffffffffffffffffffffffffffffffffffffffff1681526020019081526020016000208190555081600460008573ffffffffffffffffffffffffffffffffffffffff1673ffffffffffffffffffffffffffffffffffffffff1681526020019081526020016000205401600460008573ffffffffffffffffffffffffffffffffffffffff1673ffffffffffffffffffffffffffffffffffffffff168152602001908152602001600020819055508273ffffffffffffffffffffffffffffffffffffffff163373ffffffffffffffffffffffffffffffffffffffff167fddf252ad1be2c89b69c2b068fc378daa952ba7f163c4a11628f55a4df523b3ef846040518082815260200191505060405180910390a36001905092915050565b600081600460008573ffffffffffffffffffffffffffffffffffffffff1673ffffffffffffffffffffffffffffffffffffffff168152602001908152602001600020541015610c8157600080fd5b81600460008573ffffffffffffffffffffffffffffffffffffffff1673ffffffffffffffffffffffffffffffffffffffff1681526020019081526020016000205403600460008573ffffffffffffffffffffffffffffffffffffffff1673ffffffffffffffffffffffffffffffffffffffff1681526020019081526020016000208190555081600054036000819055508273ffffffffffffffffffffffffffffffffffffffff167fcc16f5dbb4873280815c1ee09dbd06736cffcc184412cf7a71a0fdb75d397ca5836040518082815260200191505060405180910390a26001905092915050565b6000600560008473ffffffffffffffffffffffffffffffffffffffff1673ffffffffffffffffffffffffffffffffffffffff16815260200190815260200160002060008373ffffffffffffffffffffffffffffffffffffffff1673ffffffffffffffffffffffffffffffffffffffff1681526020019081526020016000205490509291505056fea165627a7a7230582024d783ec9fa4144524344fc3ef7eb4d8ade8d51c221adda12a8c5263e8a0e7710029",
  "source": "pragma solidity 0.5.8;\n\n//import './Queue.sol';\nimport './Token.sol';\n\n/**\n * @title Crowdsale\n * @dev Contract that deploys `Token.sol`\n * Is timelocked, manages buyer queue, updates balances on `Token.sol`\n */\n\n/* To do: Use SafeMath\n\t\t: Use Queue.sol\n\t\t: Add Mint Tokens functionality\n*/\n\ncontract Crowdsale {\n\n    address payable public owner; //owner of contract\n    address payable private _wallet; //wallet address to transfer ICO funds\n\n    Token public myToken;\n\n    \n    uint256 public numTokensSold;\n    uint256 public startTime;\n    uint256 public endTime;\n    uint256 public tokenRate; //the amount of tokens 1 wei is worth\n\n    // How many token units a buyer gets per wei.\n    // The rate is the conversion between wei and the smallest and indivisible token unit.\n    // So, if you are using a rate of 1 with a ERC20Detailed token with 3 decimals called TOK\n    // 1 wei will give you 1 unit, or 0.001 TOK.\n\n\n\n  constructor(address payable wallet, uint256 _tokenRate) public  {\n        owner = msg.sender;\n        uint256 initialNumTokens = 10000;\n        string memory tokenName = \"MYTHTOKEN\";\n        string memory symbol =\"MYTH\";\n        uint8 decimals = 18;\n\n        myToken = new Token(tokenName,symbol,decimals,initialNumTokens);\n\n        startTime = now;\n        endTime = now + 40 minutes;\n\n        tokenRate = _tokenRate;\n        _wallet = wallet;\n\n\n    }\n\n\n    modifier onlyOwner {\n        require(msg.sender == owner,\"Only owner can call this function.\");\n        _;\n    }\n\n    modifier onlyWhileOpen{\n    \trequire(isICOOpen(), \"ICO is not open\");\n    \t_;\n    }\n\n    function isICOOpen() public view returns (bool) {\n        return (now >= startTime && now <= endTime);\n    }\n\n    function isICOOver() public view returns (bool){\n    \treturn (now >endTime);\n    }\n\n   \n   function buyTokens() public payable onlyWhileOpen returns (bool){\n    \trequire(msg.value>=1, 'Amount should be atleast 1 wei');\n\n    \tuint256 weiAmount = msg.value;\n    \tuint256 numTokensToBuy = weiAmount * tokenRate; \n\n    \tmyToken.transfer(msg.sender,numTokensToBuy);\n\n    \tnumTokensSold +=numTokensToBuy;\n    \t//emit event\n    \treturn true;\n\n    }\n\n\n    function refund() public onlyWhileOpen returns (bool){\n\n    \trequire (myToken.balanceOf(msg.sender)>0, \"Zero Token balance\");\n\n    \tuint256 numTokens = myToken.balanceOf(msg.sender);\n\n    \tuint256 weiAmountToReturn = numTokens / tokenRate;\n    \tmsg.sender.transfer(weiAmountToReturn); //Return wei\n\n    \tmyToken.refundToken(msg.sender); // set to zero the token balances of the refund address\n\n    \t numTokensSold -=numTokens; //update\n\n    \t //emit event\n    \treturn true;\n\n    }\n\n\n\tfunction withdrawEthers() public onlyOwner{\n\t\trequire(isICOOver(), \"ICO not finished yet\");\n\t\t_wallet.transfer(address(this).balance);\n\n\t}\n\n\n}",
  "sourcePath": "/Users/mariamyusuf/Documents/Truffle/ICO/contracts/crowdsale.sol",
  "compiler": {
    "name": "solc",
    "version": "0.5.8+commit.23d335f2.Emscripten.clang"
  },
  "schemaVersion": "3.0.10",
  "updatedAt": "2019-07-19T15:23:17.752Z",
  "devdoc": {
    "details": "Contract that deploys `Token.sol` Is timelocked, manages buyer queue, updates balances on `Token.sol`",
    "methods": {},
    "title": "Crowdsale"
  },
  "userdoc": {
    "methods": {}
  }
}