{
  "contractName": "Queue",
  "abi": [
    {
      "inputs": [],
      "payable": false,
      "stateMutability": "nonpayable",
      "type": "constructor"
    },
    {
      "constant": true,
      "inputs": [],
      "name": "qsize",
      "outputs": [
        {
          "name": "",
          "type": "uint8"
        }
      ],
      "payable": false,
      "stateMutability": "view",
      "type": "function"
    },
    {
      "constant": true,
      "inputs": [],
      "name": "empty",
      "outputs": [
        {
          "name": "",
          "type": "bool"
        }
      ],
      "payable": false,
      "stateMutability": "view",
      "type": "function"
    },
    {
      "constant": true,
      "inputs": [],
      "name": "getFirst",
      "outputs": [
        {
          "name": "",
          "type": "address"
        }
      ],
      "payable": false,
      "stateMutability": "view",
      "type": "function"
    },
    {
      "constant": true,
      "inputs": [],
      "name": "checkPlace",
      "outputs": [
        {
          "name": "",
          "type": "uint8"
        }
      ],
      "payable": false,
      "stateMutability": "view",
      "type": "function"
    },
    {
      "constant": false,
      "inputs": [],
      "name": "checkTime",
      "outputs": [],
      "payable": false,
      "stateMutability": "nonpayable",
      "type": "function"
    },
    {
      "constant": false,
      "inputs": [],
      "name": "dequeue",
      "outputs": [],
      "payable": false,
      "stateMutability": "nonpayable",
      "type": "function"
    },
    {
      "constant": false,
      "inputs": [
        {
          "name": "addr",
          "type": "address"
        }
      ],
      "name": "enqueue",
      "outputs": [],
      "payable": false,
      "stateMutability": "nonpayable",
      "type": "function"
    }
  ],
  "bytecode": "0x608060405260056000806101000a81548160ff021916908360ff16021790555060008060016101000a81548160ff021916908360ff16021790555060018055603c60035534801561004f57600080fd5b506004600090806001815401808255809150509060018203906000526020600020016000909192909190916101000a81548173ffffffffffffffffffffffffffffffffffffffff021916908373ffffffffffffffffffffffffffffffffffffffff16021790555050610680806100c66000396000f3fe608060405234801561001057600080fd5b506004361061007d5760003560e01c8063957908d11161005b578063957908d114610134578063ad7d59fc1461013e578063e0c6190d14610162578063f2a75fe41461016c5761007d565b80631e223143146100825780633e3c9eae146100cc5780638f807f6b146100f0575b600080fd5b61008a61018e565b604051808273ffffffffffffffffffffffffffffffffffffffff1673ffffffffffffffffffffffffffffffffffffffff16815260200191505060405180910390f35b6100d461024b565b604051808260ff1660ff16815260200191505060405180910390f35b6101326004803603602081101561010657600080fd5b81019080803573ffffffffffffffffffffffffffffffffffffffff169060200190929190505050610261565b005b61013c610419565b005b6101466105c4565b604051808260ff1660ff16815260200191505060405180910390f35b61016a610618565b005b610174610638565b604051808215151515815260200191505060405180910390f35b60006004805490506001541061020c576040517f08c379a00000000000000000000000000000000000000000000000000000000081526004018080602001828103825260148152602001807f61646472657373206e6f7420696e20517565756500000000000000000000000081525060200191505060405180910390fd5b60046001548154811061021b57fe5b9060005260206000200160009054906101000a900473ffffffffffffffffffffffffffffffffffffffff16905090565b60008060019054906101000a900460ff16905090565b6000809054906101000a900460ff1660ff16600060019054906101000a900460ff1660ff1611156102fa576040517f08c379a000000000000000000000000000000000000000000000000000000000815260040180806020018281038252600d8152602001807f51756575652069732066756c6c0000000000000000000000000000000000000081525060200191505060405180910390fd5b60048190806001815401808255809150509060018203906000526020600020016000909192909190916101000a81548173ffffffffffffffffffffffffffffffffffffffff021916908373ffffffffffffffffffffffffffffffffffffffff1602179055505060008060019054906101000a900460ff1660ff16141561038257426002819055505b6000600181819054906101000a900460ff1660010191906101000a81548160ff021916908360ff160217905550600060019054906101000a900460ff16600560008373ffffffffffffffffffffffffffffffffffffffff1673ffffffffffffffffffffffffffffffffffffffff16815260200190815260200160002060006101000a81548160ff021916908360ff16021790555050565b610421610638565b15610494576040517f08c379a000000000000000000000000000000000000000000000000000000000815260040180806020018281038252600e8152602001807f517565756520697320656d70747900000000000000000000000000000000000081525060200191505060405180910390fd5b6000600560006004600154815481106104a957fe5b9060005260206000200160009054906101000a900473ffffffffffffffffffffffffffffffffffffffff1673ffffffffffffffffffffffffffffffffffffffff1673ffffffffffffffffffffffffffffffffffffffff16815260200190815260200160002060006101000a81548160ff021916908360ff16021790555060046001548154811061053557fe5b9060005260206000200160006101000a81549073ffffffffffffffffffffffffffffffffffffffff02191690556000600181819054906101000a900460ff166001900391906101000a81548160ff021916908360ff1602179055506001600081546001019190508190555060008060019054906101000a900460ff1660ff1611156105c257426002819055505b565b6000600560003373ffffffffffffffffffffffffffffffffffffffff1673ffffffffffffffffffffffffffffffffffffffff16815260200190815260200160002060009054906101000a900460ff16905090565b6003546002544203106106365761062d610419565b60006002819055505b565b600080600060019054906101000a900460ff1660ff161490509056fea165627a7a723058204cc45b40edc4644caefb18c582ed3fd362a34bf931c9e7d3b6176eae42e62d810029",
  "source": "pragma solidity 0.5.8;\n\n/**\n * @title Queue\n * @dev Data structure contract used in `Crowdsale.sol`\n * Allows buyers to line up on a first-in-first-out basis\n * See this example: http://interactivepython.org/courselib/static/pythonds/BasicDS/ImplementingaQueueinPython.html\n */\n\ncontract Queue {\n\n\tuint8  size = 5;//Maximum queue length\n\tuint8 peopleWaitingInQueue=0;\n    uint256 firstIndex=1; //head of queue starts ar index 1 not 0 (0 value in mapping 'positions' has been reserved for value not in queue)\n    uint256 timeInFirstSlot; //Timestamp for first slot\n    uint256 timeLimit = 1 minutes; //Max. time limit for first slot\n\n\taddress[]  queue;\n\n\t// position of each address in the queue. '0' => address not in queue\n\tmapping(address => uint8)  positions;\n\n\n\t/* Add events */\n\n\t/* constructor */\nconstructor() public{\n\tqueue.push(address(0));// first element to be later stored at queue[1];\n\n}\n\t/* Returns the number of people waiting in line */\n\tfunction qsize() public view returns(uint8) {\n\t\t\treturn peopleWaitingInQueue;\n\t}\n\n\t/* Returns whether the queue is empty or not */\n\tfunction empty() public view returns(bool) {\n\t\treturn peopleWaitingInQueue == 0;\n\t}\n\t\n\t/* Returns the address of the person in the front of the queue */\n\tfunction getFirst() public view returns(address) {\n\t\trequire(firstIndex<queue.length,'address not in Queue');\n\t\treturn queue[firstIndex];\n\t}\n\t\n\t/* Allows `msg.sender` to check their position in the queue */\n\tfunction checkPlace() public view returns(uint8) {\n\t\treturn positions[msg.sender];\n\t}\n\t\n\t/* Allows anyone to expel the first person in line if their time\n\t * limit is up\n\t */\n\tfunction checkTime() public{\n\t\tif (now - timeInFirstSlot >= timeLimit){\n\t\t\tdequeue();\n\t\t\ttimeInFirstSlot = 0;\n\t\t}\n\n\t}\n\t\n\t/* Removes the first person in line; either when their time is up or when\n\t * they are done with their purchase\n\n\t firstIndex == queue.length => queue is empty\n\t firstIndex < queue.length => items in queue\n\t */\n\tfunction dequeue() public {\n\t\trequire(!empty(), 'Queue is empty');//or assert?\n\t\tpositions[queue[firstIndex]] =0;\n\t\tdelete queue[firstIndex];\n\t\t-- peopleWaitingInQueue;\n\t\t\n\t\t++firstIndex; //move the index to the next first item in queue\n\t\tif (peopleWaitingInQueue >0) //start the timer for the new first item in queue\n\t\t\ttimeInFirstSlot =now; \n\n\t}\n\n\t/* Places `addr` in the first empty position in the queue */\n\tfunction enqueue(address addr) public{\n\t\trequire(peopleWaitingInQueue<=size, 'Queue is full');\n\t\t\n\t\tqueue.push(addr);\n\n\t\tif (peopleWaitingInQueue ==0) // if the queue is empty and the new item is the first in queue start the timer\n\t\t\ttimeInFirstSlot = now;\n\n\n\t\t++peopleWaitingInQueue;\n\t\tpositions[addr]=peopleWaitingInQueue;\n\t}\n}",
  "sourcePath": "/Users/mariamyusuf/Documents/Truffle/ICO/contracts/Queue.sol",
  "compiler": {
    "name": "solc",
    "version": "0.5.8+commit.23d335f2.Emscripten.clang"
  },
  "schemaVersion": "3.0.10",
  "updatedAt": "2019-07-19T15:23:17.733Z",
  "devdoc": {
    "details": "Data structure contract used in `Crowdsale.sol` Allows buyers to line up on a first-in-first-out basis See this example: http://interactivepython.org/courselib/static/pythonds/BasicDS/ImplementingaQueueinPython.html",
    "methods": {},
    "title": "Queue"
  },
  "userdoc": {
    "methods": {}
  }
}